{
  "contractName": "RockPaperScissors",
  "abi": [
    {
      "inputs": [],
      "payable": false,
      "stateMutability": "nonpayable",
      "type": "constructor"
    },
    {
      "constant": false,
      "inputs": [],
      "name": "register",
      "outputs": [],
      "payable": true,
      "stateMutability": "payable",
      "type": "function"
    },
    {
      "constant": true,
      "inputs": [],
      "name": "getPlayer1Address",
      "outputs": [
        {
          "name": "",
          "type": "address"
        }
      ],
      "payable": false,
      "stateMutability": "view",
      "type": "function"
    },
    {
      "constant": false,
      "inputs": [
        {
          "name": "choice",
          "type": "uint8"
        }
      ],
      "name": "play",
      "outputs": [],
      "payable": false,
      "stateMutability": "nonpayable",
      "type": "function"
    }
  ],
  "bytecode": "0x6060604052341561000f57600080fd5b6000600260008081526020019081526020016000206000808152602001908152602001600020819055506000600260006001815260200190815260200160002060006001815260200190815260200160002081905550600060026000600281526020019081526020016000206000600281526020019081526020016000208190555060028060008081526020019081526020016000206000600181526020019081526020016000208190555060016002600080815260200190815260200160002060006002815260200190815260200160002081905550600160026000600181526020019081526020016000206000808152602001908152602001600020819055506002806000600181526020019081526020016000206000600281526020019081526020016000208190555060028060006002815260200190815260200160002060008081526020019081526020016000208190555060016002600060028152602001908152602001600020600060018152602001908152602001600020819055506000600160166101000a81548160ff021916908360028111156101b157fe5b02179055506003600160146101000a81548160ff021916908360038111156101d557fe5b02179055506003600160156101000a81548160ff021916908360038111156101f957fe5b02179055506106fc8061020d6000396000f300606060405260043610610057576000357c0100000000000000000000000000000000000000000000000000000000900463ffffffff1680631aa3a0081461005c57806353a04b0514610066578063e9a6421f1461008c575b600080fd5b6100646100e1565b005b341561007157600080fd5b61008a600480803560ff16906020019091905050610243565b005b341561009757600080fd5b61009f6103fe565b604051808273ffffffffffffffffffffffffffffffffffffffff1673ffffffffffffffffffffffffffffffffffffffff16815260200191505060405180910390f35b600060028111156100ee57fe5b600160169054906101000a900460ff16600281111561010957fe5b14151561011557600080fd5b60008060009054906101000a900473ffffffffffffffffffffffffffffffffffffffff1673ffffffffffffffffffffffffffffffffffffffff16141561019a57336000806101000a81548173ffffffffffffffffffffffffffffffffffffffff021916908373ffffffffffffffffffffffffffffffffffffffff160217905550610241565b6000600160009054906101000a900473ffffffffffffffffffffffffffffffffffffffff1673ffffffffffffffffffffffffffffffffffffffff1614156102405733600160006101000a81548173ffffffffffffffffffffffffffffffffffffffff021916908373ffffffffffffffffffffffffffffffffffffffff16021790555060018060166101000a81548160ff0219169083600281111561023a57fe5b02179055505b5b565b6001600281111561025057fe5b600160169054906101000a900460ff16600281111561026b57fe5b14151561027757600080fd5b6000809054906101000a900473ffffffffffffffffffffffffffffffffffffffff1673ffffffffffffffffffffffffffffffffffffffff163373ffffffffffffffffffffffffffffffffffffffff1614156102f45780600160146101000a81548160ff021916908360038111156102ea57fe5b021790555061036f565b600160009054906101000a900473ffffffffffffffffffffffffffffffffffffffff1673ffffffffffffffffffffffffffffffffffffffff163373ffffffffffffffffffffffffffffffffffffffff16141561036e5780600160156101000a81548160ff0219169083600381111561036857fe5b02179055505b5b60038081111561037b57fe5b600160149054906101000a900460ff16600381111561039657fe5b141580156103c957506003808111156103ab57fe5b600160159054906101000a900460ff1660038111156103c657fe5b14155b156103f3576002600160166101000a81548160ff021916908360028111156103ed57fe5b02179055505b6103fb610427565b50565b60008060009054906101000a900473ffffffffffffffffffffffffffffffffffffffff16905090565b600060028081111561043557fe5b600160169054906101000a900460ff16600281111561045057fe5b14151561045c57600080fd5b60026000600160149054906101000a900460ff16600381111561047b57fe5b81526020019081526020016000206000600160159054906101000a900460ff1660038111156104a657fe5b815260200190815260200160002054905060008114156105c2576000809054906101000a900473ffffffffffffffffffffffffffffffffffffffff1673ffffffffffffffffffffffffffffffffffffffff166108fc60023073ffffffffffffffffffffffffffffffffffffffff163181151561051e57fe5b049081150290604051600060405180830381858888f19350505050151561054457600080fd5b600160009054906101000a900473ffffffffffffffffffffffffffffffffffffffff1673ffffffffffffffffffffffffffffffffffffffff166108fc3073ffffffffffffffffffffffffffffffffffffffff16319081150290604051600060405180830381858888f1935050505015156105bd57600080fd5b6106cd565b6001811415610648576000809054906101000a900473ffffffffffffffffffffffffffffffffffffffff1673ffffffffffffffffffffffffffffffffffffffff166108fc3073ffffffffffffffffffffffffffffffffffffffff16319081150290604051600060405180830381858888f19350505050151561064357600080fd5b6106cc565b60028114156106cb57600160009054906101000a900473ffffffffffffffffffffffffffffffffffffffff1673ffffffffffffffffffffffffffffffffffffffff166108fc3073ffffffffffffffffffffffffffffffffffffffff16319081150290604051600060405180830381858888f1935050505015156106ca57600080fd5b5b5b5b505600a165627a7a723058204cbbf461eba40555fe39253d1fce9fc414f61430818d552e5a29f922622fccc20029",
  "source": "pragma solidity ^0.4.18;\ncontract RockPaperScissors {\n\n    enum RPS {\n        Rock,\n        Paper,\n        Scissors,\n        Unchosen\n    }\n\n    enum State {\n        Registering,\n        Playing,\n        Evaluating\n    }\n\n    address player1;\n    address player2;\n\n    RPS player1choice;\n    RPS player2choice;\n\n    State globalState;\n\n    mapping(uint => mapping(uint => uint)) outcomes;\n\n    mapping(address => RPS) choices;\n\n    function RockPaperScissors() public {\n        outcomes[0][0] = 0;\n        outcomes[1][1] = 0;\n        outcomes[2][2] = 0;\n        outcomes[0][1] = 2;\n        outcomes[0][2] = 1;\n        outcomes[1][0] = 1;\n        outcomes[1][2] = 2;\n        outcomes[2][0] = 2;\n        outcomes[2][1] = 1;\n\n        globalState = State.Registering;\n\n        player1choice = RPS.Unchosen;\n        player2choice = RPS.Unchosen;\n    }\n\n    function register() public payable stateRegistering() {\n\n        if (player1 == 0) {\n            player1 = msg.sender;\n        } else if (player2 == 0) {\n            player2 = msg.sender;\n            globalState = State.Playing;\n        }\n    }\n\n    function getPlayer1Address() public view returns (address) {\n        return player1;\n    }\n\n    function play(RPS choice) public statePlaying() {\n        if (msg.sender == player1) {\n            player1choice = choice;\n        } else if (msg.sender == player2) {\n            player2choice = choice;\n        }\n\n        if (player1choice != RPS.Unchosen && player2choice != RPS.Unchosen) {\n            globalState = State.Evaluating;\n        }\n\n        evaluate();\n    }\n\n    function evaluate() private stateEvaluating() {\n        uint result = outcomes[uint(player1choice)][uint(player2choice)];\n\n        if (result == 0) {\n            player1.transfer(this.balance/2);\n            player2.transfer(this.balance);\n        } else if (result == 1) {\n            player1.transfer(this.balance);\n        } else if (result == 2) {\n            player2.transfer(this.balance);\n        }\n    }\n\n    modifier stateRegistering() {\n        if (globalState != State.Registering) {\n            revert();\n        } else {\n            _;\n        }\n    }\n\n    modifier statePlaying() {\n        if (globalState != State.Playing) {\n            revert();\n        } else {\n            _;\n        }\n    }\n\n    modifier stateEvaluating() {\n        if (globalState != State.Evaluating) {\n            revert();\n        } else {\n            _;\n        }\n    }\n\n}\n",
  "sourcePath": "/Users/jhgwhite/Documents/Computing 4th Year/Decentralised Ledgers/SmartContract/contracts/RockPaperScissors.sol",
  "compiler": {
    "name": "solc",
    "version": "0.4.19+commit.c4cbbb05.Emscripten.clang"
  },
  "schemaVersion": "1.0.1",
  "updatedAt": "2018-02-28T20:05:25.285Z"
}