{
  "contractName": "RockPaperScissors",
  "abi": [
    {
      "inputs": [],
      "payable": false,
      "stateMutability": "nonpayable",
      "type": "constructor"
    },
    {
      "constant": false,
      "inputs": [],
      "name": "register",
      "outputs": [],
      "payable": true,
      "stateMutability": "payable",
      "type": "function"
    },
    {
      "constant": false,
      "inputs": [
        {
          "name": "choice",
          "type": "uint8"
        }
      ],
      "name": "play",
      "outputs": [],
      "payable": false,
      "stateMutability": "nonpayable",
      "type": "function"
    }
  ],
  "bytecode": "0x6060604052341561000f57600080fd5b6000600260008081526020019081526020016000206000808152602001908152602001600020819055506000600260006001815260200190815260200160002060006001815260200190815260200160002081905550600060026000600281526020019081526020016000206000600281526020019081526020016000208190555060028060008081526020019081526020016000206000600181526020019081526020016000208190555060016002600080815260200190815260200160002060006002815260200190815260200160002081905550600160026000600181526020019081526020016000206000808152602001908152602001600020819055506002806000600181526020019081526020016000206000600281526020019081526020016000208190555060028060006002815260200190815260200160002060008081526020019081526020016000208190555060016002600060028152602001908152602001600020600060018152602001908152602001600020819055506000600160166101000a81548160ff021916908360028111156101b157fe5b02179055506003600160146101000a81548160ff021916908360038111156101d557fe5b02179055506003600160156101000a81548160ff021916908360038111156101f957fe5b02179055506106738061020d6000396000f30060606040526004361061004c576000357c0100000000000000000000000000000000000000000000000000000000900463ffffffff1680631aa3a0081461005157806353a04b051461005b575b600080fd5b610059610081565b005b341561006657600080fd5b61007f600480803560ff169060200190919050506101e3565b005b6000600281111561008e57fe5b600160169054906101000a900460ff1660028111156100a957fe5b1415156100b557600080fd5b60008060009054906101000a900473ffffffffffffffffffffffffffffffffffffffff1673ffffffffffffffffffffffffffffffffffffffff16141561013a57336000806101000a81548173ffffffffffffffffffffffffffffffffffffffff021916908373ffffffffffffffffffffffffffffffffffffffff1602179055506101e1565b6000600160009054906101000a900473ffffffffffffffffffffffffffffffffffffffff1673ffffffffffffffffffffffffffffffffffffffff1614156101e05733600160006101000a81548173ffffffffffffffffffffffffffffffffffffffff021916908373ffffffffffffffffffffffffffffffffffffffff16021790555060018060166101000a81548160ff021916908360028111156101da57fe5b02179055505b5b565b600160028111156101f057fe5b600160169054906101000a900460ff16600281111561020b57fe5b14151561021757600080fd5b6000809054906101000a900473ffffffffffffffffffffffffffffffffffffffff1673ffffffffffffffffffffffffffffffffffffffff163373ffffffffffffffffffffffffffffffffffffffff1614156102945780600160146101000a81548160ff0219169083600381111561028a57fe5b021790555061030f565b600160009054906101000a900473ffffffffffffffffffffffffffffffffffffffff1673ffffffffffffffffffffffffffffffffffffffff163373ffffffffffffffffffffffffffffffffffffffff16141561030e5780600160156101000a81548160ff0219169083600381111561030857fe5b02179055505b5b60038081111561031b57fe5b600160149054906101000a900460ff16600381111561033657fe5b14158015610369575060038081111561034b57fe5b600160159054906101000a900460ff16600381111561036657fe5b14155b15610393576002600160166101000a81548160ff0219169083600281111561038d57fe5b02179055505b61039b61039e565b50565b60006002808111156103ac57fe5b600160169054906101000a900460ff1660028111156103c757fe5b1415156103d357600080fd5b60026000600160149054906101000a900460ff1660038111156103f257fe5b81526020019081526020016000206000600160159054906101000a900460ff16600381111561041d57fe5b81526020019081526020016000205490506000811415610539576000809054906101000a900473ffffffffffffffffffffffffffffffffffffffff1673ffffffffffffffffffffffffffffffffffffffff166108fc60023073ffffffffffffffffffffffffffffffffffffffff163181151561049557fe5b049081150290604051600060405180830381858888f1935050505015156104bb57600080fd5b600160009054906101000a900473ffffffffffffffffffffffffffffffffffffffff1673ffffffffffffffffffffffffffffffffffffffff166108fc3073ffffffffffffffffffffffffffffffffffffffff16319081150290604051600060405180830381858888f19350505050151561053457600080fd5b610644565b60018114156105bf576000809054906101000a900473ffffffffffffffffffffffffffffffffffffffff1673ffffffffffffffffffffffffffffffffffffffff166108fc3073ffffffffffffffffffffffffffffffffffffffff16319081150290604051600060405180830381858888f1935050505015156105ba57600080fd5b610643565b600281141561064257600160009054906101000a900473ffffffffffffffffffffffffffffffffffffffff1673ffffffffffffffffffffffffffffffffffffffff166108fc3073ffffffffffffffffffffffffffffffffffffffff16319081150290604051600060405180830381858888f19350505050151561064157600080fd5b5b5b5b505600a165627a7a72305820450fdf868fa3907003885d8dcdfa85f2585e1873cfc834b6a6690c1e36fc0f3a0029",
  "source": "pragma solidity ^0.4.2;\ncontract RockPaperScissors {\n\n    enum RPS {\n        Rock,\n        Paper,\n        Scissors,\n        Unchosen\n    }\n\n    enum State {\n        Registering,\n        Playing,\n        Evaluating\n    }\n\n    address player1;\n    address player2;\n\n    RPS player1choice;\n    RPS player2choice;\n\n    State globalState;\n\n    mapping(uint => mapping(uint => uint)) outcomes;\n\n    mapping(address => RPS) choices;\n\n    function RockPaperScissors() public {\n        outcomes[0][0] = 0;\n        outcomes[1][1] = 0;\n        outcomes[2][2] = 0;\n        outcomes[0][1] = 2;\n        outcomes[0][2] = 1;\n        outcomes[1][0] = 1;\n        outcomes[1][2] = 2;\n        outcomes[2][0] = 2;\n        outcomes[2][1] = 1;\n\n        globalState = State.Registering;\n\n        player1choice = RPS.Unchosen;\n        player2choice = RPS.Unchosen;\n    }\n\n    function register() public payable stateRegistering() {\n\n        if (player1 == 0) {\n            player1 = msg.sender;\n        } else if (player2 == 0) {\n            player2 = msg.sender;\n            globalState = State.Playing;\n        }\n    }\n\n    function play(RPS choice) public statePlaying() {\n        if (msg.sender == player1) {\n            player1choice = choice;\n        } else if (msg.sender == player2) {\n            player2choice = choice;\n        }\n\n        if (player1choice != RPS.Unchosen && player2choice != RPS.Unchosen) {\n            globalState = State.Evaluating;\n        }\n\n        evaluate();\n    }\n\n    function evaluate() private stateEvaluating() {\n        uint result = outcomes[uint(player1choice)][uint(player2choice)];\n\n        if (result == 0) {\n            player1.transfer(this.balance/2);\n            player2.transfer(this.balance);\n        } else if (result == 1) {\n            player1.transfer(this.balance);\n        } else if (result == 2) {\n            player2.transfer(this.balance);\n        }\n    }\n\n    modifier stateRegistering() {\n        if (globalState != State.Registering) {\n            revert();\n        } else {\n            _;\n        }\n    }\n\n    modifier statePlaying() {\n        if (globalState != State.Playing) {\n            revert();\n        } else {\n            _;\n        }\n    }\n\n    modifier stateEvaluating() {\n        if (globalState != State.Evaluating) {\n            revert();\n        } else {\n            _;\n        }\n    }\n\n}\n",
  "sourcePath": "/Users/jhgwhite/Documents/Computing 4th Year/Decentralised Ledgers/SmartContract/contracts/RockPaperScissors.sol",
  "compiler": {
    "name": "solc",
    "version": "0.4.19+commit.c4cbbb05.Emscripten.clang"
  },
  "schemaVersion": "1.0.1",
  "updatedAt": "2018-02-24T16:06:59.899Z"
}