{
  "contractName": "RockPaperScissors",
  "abi": [
    {
      "inputs": [],
      "payable": false,
      "stateMutability": "nonpayable",
      "type": "constructor"
    },
    {
      "constant": false,
      "inputs": [],
      "name": "register",
      "outputs": [],
      "payable": true,
      "stateMutability": "payable",
      "type": "function"
    },
    {
      "constant": false,
      "inputs": [
        {
          "name": "choice",
          "type": "uint8"
        },
        {
          "name": "secret",
          "type": "string"
        }
      ],
      "name": "play",
      "outputs": [],
      "payable": false,
      "stateMutability": "nonpayable",
      "type": "function"
    },
    {
      "constant": false,
      "inputs": [
        {
          "name": "choice",
          "type": "uint8"
        },
        {
          "name": "secret",
          "type": "string"
        }
      ],
      "name": "reveal",
      "outputs": [],
      "payable": false,
      "stateMutability": "nonpayable",
      "type": "function"
    },
    {
      "constant": true,
      "inputs": [],
      "name": "getState",
      "outputs": [
        {
          "name": "",
          "type": "uint8"
        }
      ],
      "payable": false,
      "stateMutability": "view",
      "type": "function"
    }
  ],
  "bytecode": "0x6060604052341561000f57600080fd5b6000600560008081526020019081526020016000206000808152602001908152602001600020819055506000600560006001815260200190815260200160002060006001815260200190815260200160002081905550600060056000600281526020019081526020016000206000600281526020019081526020016000208190555060026005600080815260200190815260200160002060006001815260200190815260200160002081905550600160056000808152602001908152602001600020600060028152602001908152602001600020819055506001600560006001815260200190815260200160002060008081526020019081526020016000208190555060026005600060018152602001908152602001600020600060028152602001908152602001600020819055506002600560006002815260200190815260200160002060008081526020019081526020016000208190555060016005600060028152602001908152602001600020600060018152602001908152602001600020819055506000600460006101000a81548160ff021916908360068111156101b457fe5b02179055506003600160146101000a81548160ff021916908360038111156101d857fe5b02179055506003600160156101000a81548160ff021916908360038111156101fc57fe5b0217905550610d4d806102106000396000f300606060405260043610610062576000357c0100000000000000000000000000000000000000000000000000000000900463ffffffff1680631865c57d146100675780631aa3a0081461009e57806351e74b0d146100a8578063ca3ed9e814610111575b600080fd5b341561007257600080fd5b61007a61017a565b6040518082600681111561008a57fe5b60ff16815260200191505060405180910390f35b6100a6610191565b005b34156100b357600080fd5b61010f600480803560ff1690602001909190803590602001908201803590602001908080601f01602080910402602001604051908101604052809392919081815260200183838082843782019150505050505091905050610247565b005b341561011c57600080fd5b610178600480803560ff1690602001909190803590602001908201803590602001908080601f01602080910402602001604051908101604052809392919081815260200183838082843782019150505050505091905050610519565b005b6000600460009054906101000a900460ff16905090565b61019a33610883565b60008060009054906101000a900473ffffffffffffffffffffffffffffffffffffffff1673ffffffffffffffffffffffffffffffffffffffff161415801561021b57506000600160009054906101000a900473ffffffffffffffffffffffffffffffffffffffff1673ffffffffffffffffffffffffffffffffffffffff1614155b15610245576001600460006101000a81548160ff0219169083600681111561023f57fe5b02179055505b565b6001600681111561025457fe5b61025c61017a565b600681111561026757fe5b14151561027357600080fd5b6000809054906101000a900473ffffffffffffffffffffffffffffffffffffffff1673ffffffffffffffffffffffffffffffffffffffff163373ffffffffffffffffffffffffffffffffffffffff16141561039e57806040518082805190602001908083835b6020831015156102fe57805182526020820191506020810190506020830392506102d9565b6001836020036101000a0380198251168184511680821785525050505050509050019150506040518091039020826040518082600381111561033c57fe5b60ff167f01000000000000000000000000000000000000000000000000000000000000000281526001019150506040518091039020186040518082600019166000191681526020019150506040518091039020600281600019169055506104c7565b600160009054906101000a900473ffffffffffffffffffffffffffffffffffffffff1673ffffffffffffffffffffffffffffffffffffffff163373ffffffffffffffffffffffffffffffffffffffff1614156104c657806040518082805190602001908083835b60208310151561042a5780518252602082019150602081019050602083039250610405565b6001836020036101000a0380198251168184511680821785525050505050509050019150506040518091039020826040518082600381111561046857fe5b60ff167f01000000000000000000000000000000000000000000000000000000000000000281526001019150506040518091039020186040518082600019166000191681526020019150506040518091039020600381600019169055505b5b600060010260025460001916141580156104eb575060006001026003546000191614155b15610515576002600460006101000a81548160ff0219169083600681111561050f57fe5b02179055505b5050565b6002600681111561052657fe5b61052e61017a565b600681111561053957fe5b14151561054557600080fd5b6000809054906101000a900473ffffffffffffffffffffffffffffffffffffffff1673ffffffffffffffffffffffffffffffffffffffff163373ffffffffffffffffffffffffffffffffffffffff16148015610670575060025460001916816040518082805190602001908083835b6020831015156105d957805182526020820191506020810190506020830392506105b4565b6001836020036101000a0380198251168184511680821785525050505050509050019150506040518091039020836040518082600381111561061757fe5b60ff167f0100000000000000000000000000000000000000000000000000000000000000028152600101915050604051809103902018604051808260001916600019168152602001915050604051809103902060001916145b1561069d5781600160146101000a81548160ff0219169083600381111561069357fe5b02179055506107f3565b600160009054906101000a900473ffffffffffffffffffffffffffffffffffffffff1673ffffffffffffffffffffffffffffffffffffffff163373ffffffffffffffffffffffffffffffffffffffff161480156107c9575060035460001916816040518082805190602001908083835b602083101515610732578051825260208201915060208101905060208303925061070d565b6001836020036101000a0380198251168184511680821785525050505050509050019150506040518091039020836040518082600381111561077057fe5b60ff167f0100000000000000000000000000000000000000000000000000000000000000028152600101915050604051809103902018604051808260001916600019168152602001915050604051809103902060001916145b156107f25781600160156101000a81548160ff021916908360038111156107ec57fe5b02179055505b5b6003808111156107ff57fe5b600160149054906101000a900460ff16600381111561081a57fe5b1415801561084d575060038081111561082f57fe5b600160159054906101000a900460ff16600381111561084a57fe5b14155b1561087f576003600460006101000a81548160ff0219169083600681111561087157fe5b021790555061087e610a14565b5b5050565b6000600681111561089057fe5b61089861017a565b60068111156108a357fe5b1415156108af57600080fd5b60008060009054906101000a900473ffffffffffffffffffffffffffffffffffffffff1673ffffffffffffffffffffffffffffffffffffffff16141561093457806000806101000a81548173ffffffffffffffffffffffffffffffffffffffff021916908373ffffffffffffffffffffffffffffffffffffffff160217905550610a11565b6000600160009054906101000a900473ffffffffffffffffffffffffffffffffffffffff1673ffffffffffffffffffffffffffffffffffffffff161480156109c957506000809054906101000a900473ffffffffffffffffffffffffffffffffffffffff1673ffffffffffffffffffffffffffffffffffffffff168173ffffffffffffffffffffffffffffffffffffffff1614155b15610a105780600160006101000a81548173ffffffffffffffffffffffffffffffffffffffff021916908373ffffffffffffffffffffffffffffffffffffffff1602179055505b5b50565b600060036006811115610a2357fe5b610a2b61017a565b6006811115610a3657fe5b141515610a4257600080fd5b60056000600160149054906101000a900460ff166003811115610a6157fe5b81526020019081526020016000206000600160159054906101000a900460ff166003811115610a8c57fe5b81526020019081526020016000205490506000811415610bcb5760048060006101000a81548160ff02191690836006811115610ac457fe5b02179055506000809054906101000a900473ffffffffffffffffffffffffffffffffffffffff1673ffffffffffffffffffffffffffffffffffffffff166108fc60023073ffffffffffffffffffffffffffffffffffffffff1631811515610b2757fe5b049081150290604051600060405180830381858888f193505050501515610b4d57600080fd5b600160009054906101000a900473ffffffffffffffffffffffffffffffffffffffff1673ffffffffffffffffffffffffffffffffffffffff166108fc3073ffffffffffffffffffffffffffffffffffffffff16319081150290604051600060405180830381858888f193505050501515610bc657600080fd5b610d1e565b6001811415610c75576005600460006101000a81548160ff02191690836006811115610bf357fe5b02179055506000809054906101000a900473ffffffffffffffffffffffffffffffffffffffff1673ffffffffffffffffffffffffffffffffffffffff166108fc3073ffffffffffffffffffffffffffffffffffffffff16319081150290604051600060405180830381858888f193505050501515610c7057600080fd5b610d1d565b6002811415610d1c576006600460006101000a81548160ff02191690836006811115610c9d57fe5b0217905550600160009054906101000a900473ffffffffffffffffffffffffffffffffffffffff1673ffffffffffffffffffffffffffffffffffffffff166108fc3073ffffffffffffffffffffffffffffffffffffffff16319081150290604051600060405180830381858888f193505050501515610d1b57600080fd5b5b5b5b505600a165627a7a72305820d0680b282049e1d439794ab67c7c908ea56ec6a609752932cb811ce70341f8980029",
  "source": "pragma solidity ^0.4.18;\ncontract RockPaperScissors {\n\n    enum RPS {\n        Rock,\n        Paper,\n        Scissors,\n        Unchosen\n    }\n\n    enum State {\n        Registering,\n        Playing,\n        Revealing,\n        Evaluating,\n        Draw,\n        Player1Win,\n        Player2Win\n    }\n\n    address player1;\n    address player2;\n\n    RPS player1choice;\n    RPS player2choice;\n\n    bytes32 player1ChoiceHash;\n    bytes32 player2ChoiceHash;\n\n    State globalState;\n\n    mapping(uint => mapping(uint => uint)) outcomes;\n\n    mapping(address => RPS) choices;\n\n    function RockPaperScissors() public {\n        outcomes[0][0] = 0;\n        outcomes[1][1] = 0;\n        outcomes[2][2] = 0;\n        outcomes[0][1] = 2;\n        outcomes[0][2] = 1;\n        outcomes[1][0] = 1;\n        outcomes[1][2] = 2;\n        outcomes[2][0] = 2;\n        outcomes[2][1] = 1;\n\n        globalState = State.Registering;\n\n        player1choice = RPS.Unchosen;\n        player2choice = RPS.Unchosen;\n    }\n\n    function register() public payable {\n      registerPlayer(msg.sender);\n      if (player1 != 0 && player2 != 0) {\n        globalState = State.Playing;\n      }\n    }\n\n    function registerPlayer(address newPlayer) private stateRegistering() {\n\n        if (player1 == 0) {\n            player1 = newPlayer;\n        } else if (player2 == 0 && newPlayer != player1) {\n            player2 = newPlayer;\n        }\n    }\n\n    function play(RPS choice, string secret) public statePlaying() {\n        if (msg.sender == player1) {\n            player1ChoiceHash = keccak256(keccak256(choice) ^ keccak256(secret));\n        } else if (msg.sender == player2) {\n            player2ChoiceHash = keccak256(keccak256(choice) ^ keccak256(secret));\n        }\n\n        if (player1ChoiceHash != 0 && player2ChoiceHash != 0) {\n            globalState = State.Revealing;\n        }\n    }\n\n    function reveal(RPS choice, string secret) public stateRevealing() {\n\n        if (msg.sender == player1 && keccak256(keccak256(choice) ^ keccak256(secret)) == player1ChoiceHash) {\n            player1choice = choice;\n        } else if (msg.sender == player2 && keccak256(keccak256(choice) ^ keccak256(secret)) == player2ChoiceHash) {\n            player2choice = choice;\n        }\n\n        if (player1choice != RPS.Unchosen && player2choice != RPS.Unchosen) {\n            globalState = State.Evaluating;\n            evaluate();\n        }\n\n\n    }\n\n    function evaluate() private stateEvaluating() {\n        uint result = outcomes[uint(player1choice)][uint(player2choice)];\n\n        if (result == 0) {\n            globalState = State.Draw;\n            player1.transfer(this.balance/2);\n            player2.transfer(this.balance);\n        } else if (result == 1) {\n            globalState = State.Player1Win;\n            player1.transfer(this.balance);\n        } else if (result == 2) {\n            globalState = State.Player2Win;\n            player2.transfer(this.balance);\n        }\n    }\n\n    modifier stateRegistering() {\n        if (getState() != State.Registering) {\n            revert();\n        } else {\n            _;\n        }\n    }\n\n    modifier statePlaying() {\n        if (getState() != State.Playing) {\n            revert();\n        } else {\n            _;\n        }\n    }\n\n    modifier stateRevealing() {\n        if (getState() != State.Revealing) {\n            revert();\n        } else {\n            _;\n        }\n    }\n\n    modifier stateEvaluating() {\n        if (getState() != State.Evaluating) {\n            revert();\n        } else {\n            _;\n        }\n    }\n\n    function getState() public view returns(State) {\n        return globalState;\n    }\n\n}\n",
  "sourcePath": "/Users/jhgwhite/Documents/Computing 4th Year/Decentralised Ledgers/SmartContract/contracts/RockPaperScissors.sol",
  "compiler": {
    "name": "solc",
    "version": "0.4.19+commit.c4cbbb05.Emscripten.clang"
  },
  "schemaVersion": "1.0.1",
  "updatedAt": "2018-03-03T21:44:42.891Z"
}