{
  "contractName": "RockPaperScissors",
  "abi": [
    {
      "inputs": [],
      "payable": false,
      "stateMutability": "nonpayable",
      "type": "constructor"
    },
    {
      "constant": false,
      "inputs": [],
      "name": "register",
      "outputs": [],
      "payable": true,
      "stateMutability": "payable",
      "type": "function"
    },
    {
      "constant": false,
      "inputs": [
        {
          "name": "choice",
          "type": "uint8"
        },
        {
          "name": "secret",
          "type": "string"
        }
      ],
      "name": "play",
      "outputs": [],
      "payable": true,
      "stateMutability": "payable",
      "type": "function"
    },
    {
      "constant": false,
      "inputs": [
        {
          "name": "choice",
          "type": "uint8"
        },
        {
          "name": "secret",
          "type": "string"
        }
      ],
      "name": "reveal",
      "outputs": [],
      "payable": false,
      "stateMutability": "nonpayable",
      "type": "function"
    },
    {
      "constant": true,
      "inputs": [],
      "name": "getBalance",
      "outputs": [
        {
          "name": "",
          "type": "uint256"
        }
      ],
      "payable": false,
      "stateMutability": "view",
      "type": "function"
    },
    {
      "constant": true,
      "inputs": [],
      "name": "getState",
      "outputs": [
        {
          "name": "",
          "type": "uint8"
        }
      ],
      "payable": false,
      "stateMutability": "view",
      "type": "function"
    }
  ],
  "bytecode": "0x60606040526005600755341561001457600080fd5b6000600860008081526020019081526020016000206000808152602001908152602001600020819055506000600860006001815260200190815260200160002060006001815260200190815260200160002081905550600060086000600281526020019081526020016000206000600281526020019081526020016000208190555060026008600080815260200190815260200160002060006001815260200190815260200160002081905550600160086000808152602001908152602001600020600060028152602001908152602001600020819055506001600860006001815260200190815260200160002060008081526020019081526020016000208190555060026008600060018152602001908152602001600020600060028152602001908152602001600020819055506002600860006002815260200190815260200160002060008081526020019081526020016000208190555060016008600060028152602001908152602001600020600060018152602001908152602001600020819055506000600660006101000a81548160ff021916908360068111156101b957fe5b02179055506003600160146101000a81548160ff021916908360038111156101dd57fe5b02179055506003600160156101000a81548160ff0219169083600381111561020157fe5b0217905550610f3c806102156000396000f30060606040526004361061006d576000357c0100000000000000000000000000000000000000000000000000000000900463ffffffff16806312065fe0146100725780631865c57d1461009b5780631aa3a008146100d257806351e74b0d146100dc578063ca3ed9e81461013a575b600080fd5b341561007d57600080fd5b6100856101a3565b6040518082815260200191505060405180910390f35b34156100a657600080fd5b6100ae6101c2565b604051808260068111156100be57fe5b60ff16815260200191505060405180910390f35b6100da6101d9565b005b610138600480803560ff1690602001909190803590602001908201803590602001908080601f0160208091040260200160405190810160405280939291908181526020018383808284378201915050505050509190505061028f565b005b341561014557600080fd5b6101a1600480803560ff1690602001909190803590602001908201803590602001908080601f0160208091040260200160405190810160405280939291908181526020018383808284378201915050505050509190505061065f565b005b60003073ffffffffffffffffffffffffffffffffffffffff1631905090565b6000600660009054906101000a900460ff16905090565b6101e233610aa8565b60008060009054906101000a900473ffffffffffffffffffffffffffffffffffffffff1673ffffffffffffffffffffffffffffffffffffffff161415801561026357506000600160009054906101000a900473ffffffffffffffffffffffffffffffffffffffff1673ffffffffffffffffffffffffffffffffffffffff1614155b1561028d576001600660006101000a81548160ff0219169083600681111561028757fe5b02179055505b565b6000809054906101000a900473ffffffffffffffffffffffffffffffffffffffff1673ffffffffffffffffffffffffffffffffffffffff163373ffffffffffffffffffffffffffffffffffffffff161415801561033a5750600160009054906101000a900473ffffffffffffffffffffffffffffffffffffffff1673ffffffffffffffffffffffffffffffffffffffff163373ffffffffffffffffffffffffffffffffffffffff1614155b1561034457600080fd5b6001600681111561035157fe5b6103596101c2565b600681111561036457fe5b14151561037057600080fd5b6007548034101561038057600080fd5b6000809054906101000a900473ffffffffffffffffffffffffffffffffffffffff1673ffffffffffffffffffffffffffffffffffffffff163373ffffffffffffffffffffffffffffffffffffffff161480156103e55750600060010260045460001916145b156104c757816040518082805190602001908083835b60208310151561042057805182526020820191506020810190506020830392506103fb565b6001836020036101000a0380198251168184511680821785525050505050509050019150506040518091039020836040518082600381111561045e57fe5b60ff167f01000000000000000000000000000000000000000000000000000000000000000281526001019150506040518091039020186040518082600019166000191681526020019150506040518091039020600481600019169055503460028190555061060c565b600160009054906101000a900473ffffffffffffffffffffffffffffffffffffffff1673ffffffffffffffffffffffffffffffffffffffff163373ffffffffffffffffffffffffffffffffffffffff1614801561052d5750600060010260055460001916145b1561060b57816040518082805190602001908083835b6020831015156105685780518252602082019150602081019050602083039250610543565b6001836020036101000a038019825116818451168082178552505050505050905001915050604051809103902083604051808260038111156105a657fe5b60ff167f0100000000000000000000000000000000000000000000000000000000000000028152600101915050604051809103902018604051808260001916600019168152602001915050604051809103902060058160001916905550346003819055505b5b60006001026004546000191614158015610630575060006001026005546000191614155b1561065a576002600660006101000a81548160ff0219169083600681111561065457fe5b02179055505b505050565b6000809054906101000a900473ffffffffffffffffffffffffffffffffffffffff1673ffffffffffffffffffffffffffffffffffffffff163373ffffffffffffffffffffffffffffffffffffffff161415801561070a5750600160009054906101000a900473ffffffffffffffffffffffffffffffffffffffff1673ffffffffffffffffffffffffffffffffffffffff163373ffffffffffffffffffffffffffffffffffffffff1614155b1561071457600080fd5b6002600681111561072157fe5b6107296101c2565b600681111561073457fe5b14151561074057600080fd5b6000809054906101000a900473ffffffffffffffffffffffffffffffffffffffff1673ffffffffffffffffffffffffffffffffffffffff163373ffffffffffffffffffffffffffffffffffffffff1614801561086b575060045460001916816040518082805190602001908083835b6020831015156107d457805182526020820191506020810190506020830392506107af565b6001836020036101000a0380198251168184511680821785525050505050509050019150506040518091039020836040518082600381111561081257fe5b60ff167f0100000000000000000000000000000000000000000000000000000000000000028152600101915050604051809103902018604051808260001916600019168152602001915050604051809103902060001916145b156108985781600160146101000a81548160ff0219169083600381111561088e57fe5b02179055506109ee565b600160009054906101000a900473ffffffffffffffffffffffffffffffffffffffff1673ffffffffffffffffffffffffffffffffffffffff163373ffffffffffffffffffffffffffffffffffffffff161480156109c4575060055460001916816040518082805190602001908083835b60208310151561092d5780518252602082019150602081019050602083039250610908565b6001836020036101000a0380198251168184511680821785525050505050509050019150506040518091039020836040518082600381111561096b57fe5b60ff167f0100000000000000000000000000000000000000000000000000000000000000028152600101915050604051809103902018604051808260001916600019168152602001915050604051809103902060001916145b156109ed5781600160156101000a81548160ff021916908360038111156109e757fe5b02179055505b5b6003808111156109fa57fe5b600160149054906101000a900460ff166003811115610a1557fe5b14158015610a485750600380811115610a2a57fe5b600160159054906101000a900460ff166003811115610a4557fe5b14155b15610aa4576003600660006101000a81548160ff02191690836006811115610a6c57fe5b0217905550610a79610c39565b610a816101c2565b600660006101000a81548160ff02191690836006811115610a9e57fe5b02179055505b5050565b60006006811115610ab557fe5b610abd6101c2565b6006811115610ac857fe5b141515610ad457600080fd5b60008060009054906101000a900473ffffffffffffffffffffffffffffffffffffffff1673ffffffffffffffffffffffffffffffffffffffff161415610b5957806000806101000a81548173ffffffffffffffffffffffffffffffffffffffff021916908373ffffffffffffffffffffffffffffffffffffffff160217905550610c36565b6000600160009054906101000a900473ffffffffffffffffffffffffffffffffffffffff1673ffffffffffffffffffffffffffffffffffffffff16148015610bee57506000809054906101000a900473ffffffffffffffffffffffffffffffffffffffff1673ffffffffffffffffffffffffffffffffffffffff168173ffffffffffffffffffffffffffffffffffffffff1614155b15610c355780600160006101000a81548173ffffffffffffffffffffffffffffffffffffffff021916908373ffffffffffffffffffffffffffffffffffffffff1602179055505b5b50565b600060036006811115610c4857fe5b610c506101c2565b6006811115610c5b57fe5b141515610c6757600080fd5b60086000600160149054906101000a900460ff166003811115610c8657fe5b81526020019081526020016000206000600160159054906101000a900460ff166003811115610cb157fe5b81526020019081526020016000205490506000811415610dbb576004600660006101000a81548160ff02191690836006811115610cea57fe5b02179055506000809054906101000a900473ffffffffffffffffffffffffffffffffffffffff1673ffffffffffffffffffffffffffffffffffffffff166108fc6002549081150290604051600060405180830381858888f193505050501515610d5257600080fd5b600160009054906101000a900473ffffffffffffffffffffffffffffffffffffffff1673ffffffffffffffffffffffffffffffffffffffff166108fc6003549081150290604051600060405180830381858888f193505050501515610db657600080fd5b610f0d565b6001811415610e65576005600660006101000a81548160ff02191690836006811115610de357fe5b02179055506000809054906101000a900473ffffffffffffffffffffffffffffffffffffffff1673ffffffffffffffffffffffffffffffffffffffff166108fc3073ffffffffffffffffffffffffffffffffffffffff16319081150290604051600060405180830381858888f193505050501515610e6057600080fd5b610f0c565b6002811415610f0b5760068060006101000a81548160ff02191690836006811115610e8c57fe5b0217905550600160009054906101000a900473ffffffffffffffffffffffffffffffffffffffff1673ffffffffffffffffffffffffffffffffffffffff166108fc3073ffffffffffffffffffffffffffffffffffffffff16319081150290604051600060405180830381858888f193505050501515610f0a57600080fd5b5b5b5b505600a165627a7a72305820dea908eb60bd4f04ee1c9aacebb40923644da59d30e76daa78ffb633c51236de0029",
  "source": "pragma solidity ^0.4.18;\ncontract RockPaperScissors {\n\n    enum RPS {\n        Rock,\n        Paper,\n        Scissors,\n        Unchosen\n    }\n\n    enum State {\n        Registering,\n        Playing,\n        Revealing,\n        Evaluating,\n        Draw,\n        Player1Win,\n        Player2Win\n    }\n\n    address player1;\n    address player2;\n\n    RPS player1choice;\n    RPS player2choice;\n\n    uint256 player1bet;\n    uint256 player2bet;\n\n    bytes32 player1ChoiceHash;\n    bytes32 player2ChoiceHash;\n\n    State globalState;\n\n    uint256 MINIMUM_BET = 5;\n\n    mapping(uint => mapping(uint => uint)) outcomes;\n\n    function RockPaperScissors() public {\n        outcomes[0][0] = 0;\n        outcomes[1][1] = 0;\n        outcomes[2][2] = 0;\n        outcomes[0][1] = 2;\n        outcomes[0][2] = 1;\n        outcomes[1][0] = 1;\n        outcomes[1][2] = 2;\n        outcomes[2][0] = 2;\n        outcomes[2][1] = 1;\n\n        globalState = State.Registering;\n\n        player1choice = RPS.Unchosen;\n        player2choice = RPS.Unchosen;\n    }\n\n    function register() public payable {\n      registerPlayer(msg.sender);\n      if (player1 != 0 && player2 != 0) {\n        globalState = State.Playing;\n      }\n    }\n\n    function registerPlayer(address newPlayer) private stateRegistering() {\n\n        if (player1 == 0) {\n            player1 = newPlayer;\n        } else if (player2 == 0 && newPlayer != player1) {\n            player2 = newPlayer;\n        }\n    }\n\n    function play(RPS choice, string secret) public\n      payable\n      isValidPlayer()\n      statePlaying()\n      largeEnoughBet(MINIMUM_BET) {\n        if (msg.sender == player1 && player1ChoiceHash == 0) {\n            player1ChoiceHash = keccak256(keccak256(choice) ^ keccak256(secret));\n            player1bet = msg.value;\n        } else if (msg.sender == player2 && player2ChoiceHash == 0) {\n            player2ChoiceHash = keccak256(keccak256(choice) ^ keccak256(secret));\n            player2bet = msg.value;\n        }\n\n        if (player1ChoiceHash != 0 && player2ChoiceHash != 0) {\n            globalState = State.Revealing;\n        }\n    }\n\n    function reveal(RPS choice, string secret) public\n      isValidPlayer()\n      stateRevealing() {\n\n        if (msg.sender == player1 && keccak256(keccak256(choice) ^ keccak256(secret)) == player1ChoiceHash) {\n            player1choice = choice;\n        } else if (msg.sender == player2 && keccak256(keccak256(choice) ^ keccak256(secret)) == player2ChoiceHash) {\n            player2choice = choice;\n        }\n\n        if (player1choice != RPS.Unchosen && player2choice != RPS.Unchosen) {\n            globalState = State.Evaluating;\n            evaluate();\n            globalState = getState();\n        }\n\n\n    }\n\n    function evaluate() private stateEvaluating() {\n        uint result = outcomes[uint(player1choice)][uint(player2choice)];\n\n        if (result == 0) {\n            globalState = State.Draw;\n            player1.transfer(player1bet);\n            player2.transfer(player2bet);\n        } else if (result == 1) {\n            globalState = State.Player1Win;\n            player1.transfer(this.balance);\n        } else if (result == 2) {\n            globalState = State.Player2Win;\n            player2.transfer(this.balance);\n        }\n    }\n\n    function getBalance() public view returns(uint) {\n        return this.balance;\n    }\n\n    modifier isValidPlayer() {\n        if (msg.sender != player1 && msg.sender != player2) {\n            revert();\n        } else {\n            _;\n        }\n    }\n\n    modifier stateRegistering() {\n        if (getState() != State.Registering) {\n            revert();\n        } else {\n            _;\n        }\n    }\n\n    modifier statePlaying() {\n        if (getState() != State.Playing) {\n            revert();\n        } else {\n            _;\n        }\n    }\n\n    modifier stateRevealing() {\n        if (getState() != State.Revealing) {\n            revert();\n        } else {\n            _;\n        }\n    }\n\n    modifier stateEvaluating() {\n        if (getState() != State.Evaluating) {\n            revert();\n        } else {\n            _;\n        }\n    }\n\n    modifier largeEnoughBet(uint256 amount) {\n        if (msg.value < amount) {\n            revert();\n        } else {\n            _;\n        }\n    }\n\n    function getState() public view returns(State) {\n        return globalState;\n    }\n\n}\n",
  "sourcePath": "/Users/jhgwhite/Documents/Computing 4th Year/Decentralised Ledgers/SmartContract/contracts/RockPaperScissors.sol",
  "compiler": {
    "name": "solc",
    "version": "0.4.19+commit.c4cbbb05.Emscripten.clang"
  },
  "schemaVersion": "1.0.1",
  "updatedAt": "2018-03-05T14:13:37.269Z"
}