{
  "contractName": "RockPaperScissors",
  "abi": [
    {
      "inputs": [],
      "payable": false,
      "stateMutability": "nonpayable",
      "type": "constructor"
    },
    {
      "constant": false,
      "inputs": [],
      "name": "register",
      "outputs": [],
      "payable": true,
      "stateMutability": "payable",
      "type": "function"
    },
    {
      "constant": false,
      "inputs": [
        {
          "name": "choice",
          "type": "uint8"
        },
        {
          "name": "secret",
          "type": "string"
        }
      ],
      "name": "play",
      "outputs": [],
      "payable": false,
      "stateMutability": "nonpayable",
      "type": "function"
    },
    {
      "constant": false,
      "inputs": [
        {
          "name": "choice",
          "type": "uint8"
        },
        {
          "name": "secret",
          "type": "string"
        }
      ],
      "name": "reveal",
      "outputs": [],
      "payable": false,
      "stateMutability": "nonpayable",
      "type": "function"
    },
    {
      "constant": true,
      "inputs": [],
      "name": "getBalance",
      "outputs": [
        {
          "name": "",
          "type": "uint256"
        }
      ],
      "payable": false,
      "stateMutability": "view",
      "type": "function"
    },
    {
      "constant": true,
      "inputs": [],
      "name": "getState",
      "outputs": [
        {
          "name": "",
          "type": "uint8"
        }
      ],
      "payable": false,
      "stateMutability": "view",
      "type": "function"
    }
  ],
  "bytecode": "0x6060604052341561000f57600080fd5b6000600560008081526020019081526020016000206000808152602001908152602001600020819055506000600560006001815260200190815260200160002060006001815260200190815260200160002081905550600060056000600281526020019081526020016000206000600281526020019081526020016000208190555060026005600080815260200190815260200160002060006001815260200190815260200160002081905550600160056000808152602001908152602001600020600060028152602001908152602001600020819055506001600560006001815260200190815260200160002060008081526020019081526020016000208190555060026005600060018152602001908152602001600020600060028152602001908152602001600020819055506002600560006002815260200190815260200160002060008081526020019081526020016000208190555060016005600060028152602001908152602001600020600060018152602001908152602001600020819055506000600460006101000a81548160ff021916908360068111156101b457fe5b02179055506003600160146101000a81548160ff021916908360038111156101d857fe5b02179055506003600160156101000a81548160ff021916908360038111156101fc57fe5b0217905550610dca806102106000396000f30060606040526004361061006d576000357c0100000000000000000000000000000000000000000000000000000000900463ffffffff16806312065fe0146100725780631865c57d1461009b5780631aa3a008146100d257806351e74b0d146100dc578063ca3ed9e814610145575b600080fd5b341561007d57600080fd5b6100856101ae565b6040518082815260200191505060405180910390f35b34156100a657600080fd5b6100ae6101cd565b604051808260068111156100be57fe5b60ff16815260200191505060405180910390f35b6100da6101e4565b005b34156100e757600080fd5b610143600480803560ff1690602001909190803590602001908201803590602001908080601f0160208091040260200160405190810160405280939291908181526020018383808284378201915050505050509190505061029a565b005b341561015057600080fd5b6101ac600480803560ff1690602001909190803590602001908201803590602001908080601f01602080910402602001604051908101604052809392919081815260200183838082843782019150505050505091905050610596565b005b60003073ffffffffffffffffffffffffffffffffffffffff1631905090565b6000600460009054906101000a900460ff16905090565b6101ed33610900565b60008060009054906101000a900473ffffffffffffffffffffffffffffffffffffffff1673ffffffffffffffffffffffffffffffffffffffff161415801561026e57506000600160009054906101000a900473ffffffffffffffffffffffffffffffffffffffff1673ffffffffffffffffffffffffffffffffffffffff1614155b15610298576001600460006101000a81548160ff0219169083600681111561029257fe5b02179055505b565b600160068111156102a757fe5b6102af6101cd565b60068111156102ba57fe5b1415156102c657600080fd5b6000809054906101000a900473ffffffffffffffffffffffffffffffffffffffff1673ffffffffffffffffffffffffffffffffffffffff163373ffffffffffffffffffffffffffffffffffffffff1614801561032b5750600060010260025460001916145b1561040657806040518082805190602001908083835b6020831015156103665780518252602082019150602081019050602083039250610341565b6001836020036101000a038019825116818451168082178552505050505050905001915050604051809103902082604051808260038111156103a457fe5b60ff167f0100000000000000000000000000000000000000000000000000000000000000028152600101915050604051809103902018604051808260001916600019168152602001915050604051809103902060028160001916905550610544565b600160009054906101000a900473ffffffffffffffffffffffffffffffffffffffff1673ffffffffffffffffffffffffffffffffffffffff163373ffffffffffffffffffffffffffffffffffffffff1614801561046c5750600060010260035460001916145b1561054357806040518082805190602001908083835b6020831015156104a75780518252602082019150602081019050602083039250610482565b6001836020036101000a038019825116818451168082178552505050505050905001915050604051809103902082604051808260038111156104e557fe5b60ff167f01000000000000000000000000000000000000000000000000000000000000000281526001019150506040518091039020186040518082600019166000191681526020019150506040518091039020600381600019169055505b5b60006001026002546000191614158015610568575060006001026003546000191614155b15610592576002600460006101000a81548160ff0219169083600681111561058c57fe5b02179055505b5050565b600260068111156105a357fe5b6105ab6101cd565b60068111156105b657fe5b1415156105c257600080fd5b6000809054906101000a900473ffffffffffffffffffffffffffffffffffffffff1673ffffffffffffffffffffffffffffffffffffffff163373ffffffffffffffffffffffffffffffffffffffff161480156106ed575060025460001916816040518082805190602001908083835b6020831015156106565780518252602082019150602081019050602083039250610631565b6001836020036101000a0380198251168184511680821785525050505050509050019150506040518091039020836040518082600381111561069457fe5b60ff167f0100000000000000000000000000000000000000000000000000000000000000028152600101915050604051809103902018604051808260001916600019168152602001915050604051809103902060001916145b1561071a5781600160146101000a81548160ff0219169083600381111561071057fe5b0217905550610870565b600160009054906101000a900473ffffffffffffffffffffffffffffffffffffffff1673ffffffffffffffffffffffffffffffffffffffff163373ffffffffffffffffffffffffffffffffffffffff16148015610846575060035460001916816040518082805190602001908083835b6020831015156107af578051825260208201915060208101905060208303925061078a565b6001836020036101000a038019825116818451168082178552505050505050905001915050604051809103902083604051808260038111156107ed57fe5b60ff167f0100000000000000000000000000000000000000000000000000000000000000028152600101915050604051809103902018604051808260001916600019168152602001915050604051809103902060001916145b1561086f5781600160156101000a81548160ff0219169083600381111561086957fe5b02179055505b5b60038081111561087c57fe5b600160149054906101000a900460ff16600381111561089757fe5b141580156108ca57506003808111156108ac57fe5b600160159054906101000a900460ff1660038111156108c757fe5b14155b156108fc576003600460006101000a81548160ff021916908360068111156108ee57fe5b02179055506108fb610a91565b5b5050565b6000600681111561090d57fe5b6109156101cd565b600681111561092057fe5b14151561092c57600080fd5b60008060009054906101000a900473ffffffffffffffffffffffffffffffffffffffff1673ffffffffffffffffffffffffffffffffffffffff1614156109b157806000806101000a81548173ffffffffffffffffffffffffffffffffffffffff021916908373ffffffffffffffffffffffffffffffffffffffff160217905550610a8e565b6000600160009054906101000a900473ffffffffffffffffffffffffffffffffffffffff1673ffffffffffffffffffffffffffffffffffffffff16148015610a4657506000809054906101000a900473ffffffffffffffffffffffffffffffffffffffff1673ffffffffffffffffffffffffffffffffffffffff168173ffffffffffffffffffffffffffffffffffffffff1614155b15610a8d5780600160006101000a81548173ffffffffffffffffffffffffffffffffffffffff021916908373ffffffffffffffffffffffffffffffffffffffff1602179055505b5b50565b600060036006811115610aa057fe5b610aa86101cd565b6006811115610ab357fe5b141515610abf57600080fd5b60056000600160149054906101000a900460ff166003811115610ade57fe5b81526020019081526020016000206000600160159054906101000a900460ff166003811115610b0957fe5b81526020019081526020016000205490506000811415610c485760048060006101000a81548160ff02191690836006811115610b4157fe5b02179055506000809054906101000a900473ffffffffffffffffffffffffffffffffffffffff1673ffffffffffffffffffffffffffffffffffffffff166108fc60023073ffffffffffffffffffffffffffffffffffffffff1631811515610ba457fe5b049081150290604051600060405180830381858888f193505050501515610bca57600080fd5b600160009054906101000a900473ffffffffffffffffffffffffffffffffffffffff1673ffffffffffffffffffffffffffffffffffffffff166108fc3073ffffffffffffffffffffffffffffffffffffffff16319081150290604051600060405180830381858888f193505050501515610c4357600080fd5b610d9b565b6001811415610cf2576005600460006101000a81548160ff02191690836006811115610c7057fe5b02179055506000809054906101000a900473ffffffffffffffffffffffffffffffffffffffff1673ffffffffffffffffffffffffffffffffffffffff166108fc3073ffffffffffffffffffffffffffffffffffffffff16319081150290604051600060405180830381858888f193505050501515610ced57600080fd5b610d9a565b6002811415610d99576006600460006101000a81548160ff02191690836006811115610d1a57fe5b0217905550600160009054906101000a900473ffffffffffffffffffffffffffffffffffffffff1673ffffffffffffffffffffffffffffffffffffffff166108fc3073ffffffffffffffffffffffffffffffffffffffff16319081150290604051600060405180830381858888f193505050501515610d9857600080fd5b5b5b5b505600a165627a7a7230582071438c65ee389b36f10c24f8b1fb1ebe42572c22986ab0fd5f881278986a6e6d0029",
  "source": "pragma solidity ^0.4.18;\ncontract RockPaperScissors {\n\n    enum RPS {\n        Rock,\n        Paper,\n        Scissors,\n        Unchosen\n    }\n\n    enum State {\n        Registering,\n        Playing,\n        Revealing,\n        Evaluating,\n        Draw,\n        Player1Win,\n        Player2Win\n    }\n\n    address player1;\n    address player2;\n\n    RPS player1choice;\n    RPS player2choice;\n\n    bytes32 player1ChoiceHash;\n    bytes32 player2ChoiceHash;\n\n    State globalState;\n\n    mapping(uint => mapping(uint => uint)) outcomes;\n\n    mapping(address => RPS) choices;\n\n    function RockPaperScissors() public {\n        outcomes[0][0] = 0;\n        outcomes[1][1] = 0;\n        outcomes[2][2] = 0;\n        outcomes[0][1] = 2;\n        outcomes[0][2] = 1;\n        outcomes[1][0] = 1;\n        outcomes[1][2] = 2;\n        outcomes[2][0] = 2;\n        outcomes[2][1] = 1;\n\n        globalState = State.Registering;\n\n        player1choice = RPS.Unchosen;\n        player2choice = RPS.Unchosen;\n    }\n\n    function register() public payable {\n      registerPlayer(msg.sender);\n      if (player1 != 0 && player2 != 0) {\n        globalState = State.Playing;\n      }\n    }\n\n    function registerPlayer(address newPlayer) private stateRegistering() {\n\n        if (player1 == 0) {\n            player1 = newPlayer;\n        } else if (player2 == 0 && newPlayer != player1) {\n            player2 = newPlayer;\n        }\n    }\n\n    function play(RPS choice, string secret) public statePlaying() {\n        if (msg.sender == player1 && player1ChoiceHash == 0) {\n            player1ChoiceHash = keccak256(keccak256(choice) ^ keccak256(secret));\n        } else if (msg.sender == player2 && player2ChoiceHash == 0) {\n            player2ChoiceHash = keccak256(keccak256(choice) ^ keccak256(secret));\n        }\n\n        if (player1ChoiceHash != 0 && player2ChoiceHash != 0) {\n            globalState = State.Revealing;\n        }\n    }\n\n    function reveal(RPS choice, string secret) public stateRevealing() {\n\n        if (msg.sender == player1 && keccak256(keccak256(choice) ^ keccak256(secret)) == player1ChoiceHash) {\n            player1choice = choice;\n        } else if (msg.sender == player2 && keccak256(keccak256(choice) ^ keccak256(secret)) == player2ChoiceHash) {\n            player2choice = choice;\n        }\n\n        if (player1choice != RPS.Unchosen && player2choice != RPS.Unchosen) {\n            globalState = State.Evaluating;\n            evaluate();\n        }\n\n\n    }\n\n    function evaluate() private stateEvaluating() {\n        uint result = outcomes[uint(player1choice)][uint(player2choice)];\n\n        if (result == 0) {\n            globalState = State.Draw;\n            player1.transfer(this.balance/2);\n            player2.transfer(this.balance);\n        } else if (result == 1) {\n            globalState = State.Player1Win;\n            player1.transfer(this.balance);\n        } else if (result == 2) {\n            globalState = State.Player2Win;\n            player2.transfer(this.balance);\n        }\n    }\n\n    function getBalance() public view returns(uint) {\n        return this.balance;\n    }\n\n    modifier stateRegistering() {\n        if (getState() != State.Registering) {\n            revert();\n        } else {\n            _;\n        }\n    }\n\n    modifier statePlaying() {\n        if (getState() != State.Playing) {\n            revert();\n        } else {\n            _;\n        }\n    }\n\n    modifier stateRevealing() {\n        if (getState() != State.Revealing) {\n            revert();\n        } else {\n            _;\n        }\n    }\n\n    modifier stateEvaluating() {\n        if (getState() != State.Evaluating) {\n            revert();\n        } else {\n            _;\n        }\n    }\n\n    function getState() public view returns(State) {\n        return globalState;\n    }\n\n}\n",
  "sourcePath": "/Users/jhgwhite/Documents/Computing 4th Year/Decentralised Ledgers/SmartContract/contracts/RockPaperScissors.sol",
  "compiler": {
    "name": "solc",
    "version": "0.4.19+commit.c4cbbb05.Emscripten.clang"
  },
  "schemaVersion": "1.0.1",
  "updatedAt": "2018-03-03T22:44:05.491Z"
}